{
  "_format": "hh-sol-artifact-1",
  "contractName": "CharityAuction",
  "sourceName": "contracts/CharityAuction.sol",
  "abi": [
    {
      "anonymous": false,
      "inputs": [
        {
          "indexed": true,
          "internalType": "uint256",
          "name": "auctionId",
          "type": "uint256"
        },
        {
          "indexed": true,
          "internalType": "address",
          "name": "nftAddress",
          "type": "address"
        },
        {
          "indexed": true,
          "internalType": "uint256",
          "name": "tokenId",
          "type": "uint256"
        },
        {
          "indexed": false,
          "internalType": "address",
          "name": "seller",
          "type": "address"
        },
        {
          "indexed": false,
          "internalType": "address",
          "name": "charity",
          "type": "address"
        },
        {
          "indexed": false,
          "internalType": "uint256",
          "name": "endTime",
          "type": "uint256"
        }
      ],
      "name": "AuctionCreated",
      "type": "event"
    },
    {
      "anonymous": false,
      "inputs": [
        {
          "indexed": true,
          "internalType": "uint256",
          "name": "auctionId",
          "type": "uint256"
        },
        {
          "indexed": false,
          "internalType": "address",
          "name": "winner",
          "type": "address"
        },
        {
          "indexed": false,
          "internalType": "uint256",
          "name": "amount",
          "type": "uint256"
        },
        {
          "indexed": false,
          "internalType": "address",
          "name": "charity",
          "type": "address"
        }
      ],
      "name": "AuctionEnded",
      "type": "event"
    },
    {
      "anonymous": false,
      "inputs": [
        {
          "indexed": true,
          "internalType": "uint256",
          "name": "auctionId",
          "type": "uint256"
        },
        {
          "indexed": true,
          "internalType": "address",
          "name": "bidder",
          "type": "address"
        },
        {
          "indexed": false,
          "internalType": "uint256",
          "name": "amount",
          "type": "uint256"
        }
      ],
      "name": "BidPlaced",
      "type": "event"
    },
    {
      "inputs": [],
      "name": "auctionCount",
      "outputs": [
        {
          "internalType": "uint256",
          "name": "",
          "type": "uint256"
        }
      ],
      "stateMutability": "view",
      "type": "function"
    },
    {
      "inputs": [
        {
          "internalType": "uint256",
          "name": "",
          "type": "uint256"
        }
      ],
      "name": "auctions",
      "outputs": [
        {
          "internalType": "address",
          "name": "nftAddress",
          "type": "address"
        },
        {
          "internalType": "uint256",
          "name": "tokenId",
          "type": "uint256"
        },
        {
          "internalType": "address payable",
          "name": "charity",
          "type": "address"
        },
        {
          "internalType": "address payable",
          "name": "seller",
          "type": "address"
        },
        {
          "internalType": "uint256",
          "name": "endTime",
          "type": "uint256"
        },
        {
          "internalType": "uint256",
          "name": "highestBid",
          "type": "uint256"
        },
        {
          "internalType": "address payable",
          "name": "highestBidder",
          "type": "address"
        },
        {
          "internalType": "bool",
          "name": "ended",
          "type": "bool"
        }
      ],
      "stateMutability": "view",
      "type": "function"
    },
    {
      "inputs": [
        {
          "internalType": "address",
          "name": "_nftAddress",
          "type": "address"
        },
        {
          "internalType": "uint256",
          "name": "_tokenId",
          "type": "uint256"
        },
        {
          "internalType": "address payable",
          "name": "_charity",
          "type": "address"
        },
        {
          "internalType": "uint256",
          "name": "_durationInMinutes",
          "type": "uint256"
        },
        {
          "internalType": "uint256",
          "name": "_minBid",
          "type": "uint256"
        }
      ],
      "name": "createAuction",
      "outputs": [],
      "stateMutability": "nonpayable",
      "type": "function"
    },
    {
      "inputs": [
        {
          "internalType": "uint256",
          "name": "_auctionId",
          "type": "uint256"
        }
      ],
      "name": "endAuction",
      "outputs": [],
      "stateMutability": "nonpayable",
      "type": "function"
    },
    {
      "inputs": [
        {
          "internalType": "uint256",
          "name": "_auctionId",
          "type": "uint256"
        }
      ],
      "name": "getAuctionDetails",
      "outputs": [
        {
          "components": [
            {
              "internalType": "address",
              "name": "nftAddress",
              "type": "address"
            },
            {
              "internalType": "uint256",
              "name": "tokenId",
              "type": "uint256"
            },
            {
              "internalType": "address payable",
              "name": "charity",
              "type": "address"
            },
            {
              "internalType": "address payable",
              "name": "seller",
              "type": "address"
            },
            {
              "internalType": "uint256",
              "name": "endTime",
              "type": "uint256"
            },
            {
              "internalType": "uint256",
              "name": "highestBid",
              "type": "uint256"
            },
            {
              "internalType": "address payable",
              "name": "highestBidder",
              "type": "address"
            },
            {
              "internalType": "bool",
              "name": "ended",
              "type": "bool"
            }
          ],
          "internalType": "struct CharityAuction.Auction",
          "name": "",
          "type": "tuple"
        }
      ],
      "stateMutability": "view",
      "type": "function"
    },
    {
      "inputs": [
        {
          "internalType": "uint256",
          "name": "_auctionId",
          "type": "uint256"
        }
      ],
      "name": "placeBid",
      "outputs": [],
      "stateMutability": "payable",
      "type": "function"
    },
    {
      "inputs": [],
      "name": "withdraw",
      "outputs": [],
      "stateMutability": "nonpayable",
      "type": "function"
    }
  ],
  "bytecode": "0x608060405234801561000f575f80fd5b50610bc28061001d5f395ff3fe60806040526004361061006e575f3560e01c80639979ef451161004c5780639979ef4514610172578063b9a2de3a14610185578063f20e5e35146101a4578063f2df5047146102f5575f80fd5b80632ad71573146100725780633ccfd60b14610099578063571a26a0146100af575b5f80fd5b34801561007d575f80fd5b506100865f5481565b6040519081526020015b60405180910390f35b3480156100a4575f80fd5b506100ad610314565b005b3480156100ba575f80fd5b506101216100c9366004610a64565b600160208190525f918252604090912080549181015460028201546003830154600484015460058501546006909501546001600160a01b0396871696949593851694928316939192811690600160a01b900460ff1688565b604080516001600160a01b03998a1681526020810198909852958816958701959095529286166060860152608085019190915260a084015290921660c082015290151560e082015261010001610090565b6100ad610180366004610a64565b610443565b348015610190575f80fd5b506100ad61019f366004610a64565b6105bc565b3480156101af575f80fd5b506102836101be366004610a64565b60408051610100810182525f80825260208201819052918101829052606081018290526080810182905260a0810182905260c0810182905260e0810191909152505f9081526001602081815260409283902083516101008101855281546001600160a01b0390811682529382015492810192909252600281015483169382019390935260038301548216606082015260048301546080820152600583015460a082015260069092015490811660c0830152600160a01b900460ff16151560e082015290565b60405161009091905f6101008201905060018060a01b03808451168352602084015160208401528060408501511660408401528060608501511660608401526080840151608084015260a084015160a08401528060c08501511660c08401525060e0830151151560e083015292915050565b348015610300575f80fd5b506100ad61030f366004610a92565b610839565b60035460ff16156103405760405162461bcd60e51b815260040161033790610ae0565b60405180910390fd5b6003805460ff19166001179055335f908152600260205260409020548061039f5760405162461bcd60e51b81526020600482015260136024820152724e6f7468696e6720746f20776974686472617760681b6044820152606401610337565b335f818152600260205260408082208290555190919083908381818185875af1925050503d805f81146103ed576040519150601f19603f3d011682016040523d82523d5f602084013e6103f2565b606091505b50509050806104355760405162461bcd60e51b815260206004820152600f60248201526e15da5d1a191c985dc819985a5b1959608a1b6044820152606401610337565b50506003805460ff19169055565b60035460ff16156104665760405162461bcd60e51b815260040161033790610ae0565b6003805460ff191660019081179091555f82815260209190915260409020600481015442106104cf5760405162461bcd60e51b8152602060048201526015602482015274105d58dd1a5bdb88185b1c9958591e48195b991959605a1b6044820152606401610337565b806005015434116105105760405162461bcd60e51b815260206004820152600b60248201526a42696420746f6f206c6f7760a81b6044820152606401610337565b60068101546001600160a01b03161561055957600581015460068201546001600160a01b03165f9081526002602052604081208054909190610553908490610b20565b90915550505b34600582018190556006820180546001600160a01b031916339081179091556040519182529083907f0e54eff26401bf69b81b26f60bd85ef47f5d85275c1d268d84f68d6897431c479060200160405180910390a350506003805460ff19169055565b60035460ff16156105df5760405162461bcd60e51b815260040161033790610ae0565b6003805460ff191660019081179091555f8281526020919091526040902060048101544210156106455760405162461bcd60e51b8152602060048201526011602482015270105d58dd1a5bdb881b9bdd08195b991959607a1b6044820152606401610337565b6006810154600160a01b900460ff16156106915760405162461bcd60e51b815260206004820152600d60248201526c105b1c9958591e48195b991959609a1b6044820152606401610337565b60068101805460ff60a01b198116600160a01b179091556001600160a01b0316156107c0578054600682015460018301546040516323b872dd60e01b81526001600160a01b03938416936323b872dd936106f49330939290911691600401610b39565b5f604051808303815f87803b15801561070b575f80fd5b505af115801561071d573d5f803e3d5ffd5b505050600282015460058301546040516001600160a01b03909216925080156108fc02915f818181858888f1935050505015801561075d573d5f803e3d5ffd5b50600681015460058201546002830154604080516001600160a01b0394851681526020810193909352921681830152905183917fbb6764412c29916bdf4a5c6fe6b1c079de35682160b2289928ce003ab459a749919081900360600190a2610435565b8054600382015460018301546040516323b872dd60e01b81526001600160a01b03938416936323b872dd936107fe9330939290911691600401610b39565b5f604051808303815f87803b158015610815575f80fd5b505af1158015610827573d5f803e3d5ffd5b5050505050506003805460ff19169055565b5f821161087f5760405162461bcd60e51b815260206004820152601460248201527304475726174696f6e206d757374206265203e20360641b6044820152606401610337565b6040516323b872dd60e01b81526001600160a01b038616906323b872dd906108af90339030908990600401610b39565b5f604051808303815f87803b1580156108c6575f80fd5b505af11580156108d8573d5f803e3d5ffd5b50505050604051806101000160405280866001600160a01b03168152602001858152602001846001600160a01b03168152602001336001600160a01b0316815260200183603c6109289190610b5d565b6109329042610b20565b815260208082018490525f60408084018290526060938401829052815482526001808452818320865181546001600160a01b039182166001600160a01b03199182161783559588015192820192909255918601516002830180549183169186169190911790559385015160038201805491861691909416179092556080840151600483015560a0840151600583015560c08401516006909201805460e0909501511515600160a01b026001600160a81b031990951692841692909217939093179055905485918716907f7562289cb493005aef5612d48258b52b47fbdcae20cc893f20706fc6eb7c6d8a3387610a2988603c610b5d565b610a339042610b20565b604051610a4293929190610b39565b60405180910390a45f80549080610a5883610b74565b91905055505050505050565b5f60208284031215610a74575f80fd5b5035919050565b6001600160a01b0381168114610a8f575f80fd5b50565b5f805f805f60a08688031215610aa6575f80fd5b8535610ab181610a7b565b9450602086013593506040860135610ac881610a7b565b94979396509394606081013594506080013592915050565b6020808252601290820152711499595b9d1c985b98de48189b1bd8dad95960721b604082015260600190565b634e487b7160e01b5f52601160045260245ffd5b80820180821115610b3357610b33610b0c565b92915050565b6001600160a01b039384168152919092166020820152604081019190915260600190565b8082028115828204841417610b3357610b33610b0c565b5f60018201610b8557610b85610b0c565b506001019056fea26469706673582212205e94049a4c923f7582e0627774349e4728454bededfe40947c3c0e755b37464864736f6c63430008180033",
  "linkReferences": {},
  "deployedLinkReferences": {}
}